:020000040800F2
:100000003008002089010008B7170008F51600081D
:10001000B517000869050008951A000800000000DF
:10002000000000000000000000000000DD180008D3
:100030006B05000800000000B9170008DF18000871
:10004000A3010008A3010008A3010008A301000800
:10005000A3010008A3010008A3010008A3010008F0
:10006000A3010008A3010008A3010008A3010008E0
:10007000A3010008A3010008A3010008A3010008D0
:10008000A3010008A3010008A3010008A3010008C0
:10009000A3010008A3010008A3010008A3010008B0
:1000A000A3010008A3010008A3010008A3010008A0
:1000B000A3010008A3010008A3010008A301000890
:1000C000A3010008A3010008A3010008A301000880
:1000D000A30100087D1A0008891A0008A30100087E
:1000E000A3010008A3010008A301000800F002F822
:1000F00000F03AF80AA090E8000C82448344AAF188
:100100000107DA4501D100F02FF8AFF2090EBAE885
:100110000F0013F0010F18BFFB1A43F0010318473B
:10012000541E0000741E0000103A24BF78C878C125
:10013000FAD8520724BF30C830C144BF04680C60ED
:10014000704700000023002400250026103A28BF35
:1001500078C1FBD8520728BF30C148BF0B60704739
:100160001FB51FBD10B510BD00F05CF81146FFF7BC
:10017000F7FF01F0A0FC00F07AF803B4FFF7F2FFFC
:1001800003BC00F07DF8000009488047094800479B
:10019000FEE7FEE7FEE7FEE7FEE7FEE7FEE7FEE737
:1001A000FEE7FEE704480549054A064B7047000094
:1001B0005B190008ED000008300200203008002024
:1001C00030040020300400204FF0000200B5134638
:1001D00094469646203922BFA0E80C50A0E80C5067
:1001E000B1F12001BFF4F7AF090728BFA0E80C5018
:1001F00048BF0CC05DF804EB890028BF40F8042B11
:1002000008BF704748BF20F8022B11F0804F18BF7D
:1002100000F8012B704770477047704700487047DF
:10022000CC0100207546FFF7F9FFAE460500694690
:10023000534620F00700854618B020B5FFF7B2FFFF
:10024000BDE820404FF000064FF000074FF00008D7
:100250004FF0000B21F00701AC46ACE8C009ACE858
:10026000C009ACE8C009ACE8C0098D46704710B5BC
:100270000446AFF300802046BDE81040FFF77DBF85
:1002800001491820ABBEFEE72600020070470000BF
:1002900070B5044600688168C943C90717D18168F1
:1002A00021F00101816000F023FD05460AE000BF56
:1002B00000F01EFD401B022804D920688068C0435E
:1002C000C00706D020688068C043C007F0D0002077
:1002D00070BDA06A40F01000A062E06A40F001002A
:1002E000E062012070BD0000F8B5002604460096CB
:1002F00000688168C943C9072DD0816841F00101B8
:100300008160164816490068B0FBF1F000E0401E1D
:1003100000900028FBD100F0EBFC054616E000BF82
:1003200000F0E6FC401B022810D920688068C0431A
:10033000C0070BD0A06A40F01000A062E06A40F055
:100340000100E06284F824600120F8BD2068806824
:10035000C043C007E4D10020F8BD00004C000020DD
:1003600040420F0010B501F029FA414800F0E8FAC8
:1003700004213F4800F046FA3D4CC03428B93C48BF
:1003800000F072F901F00AFD206001F029FA384806
:1003900000F0D6FA0421364800F034FA28B934487F
:1003A00000F062F901F0FAFC606001F02BFA3048CD
:1003B00000F0C6FA04212E4800F024FA28B92C488F
:1003C00000F052F901F0EAFCA06001F02DFA284893
:1003D00000F0B6FA0421264800F014FA28B924489F
:1003E00000F042F901F0DAFCE06001F02FFA204859
:1003F00000F0A6FA04211E4800F004FA28B91C48AF
:1004000000F032F901F0CAFC206101F031FA18481D
:1004100000F096FA0421164800F0F4F928B91448BF
:1004200000F022F901F0BAFC606101F033FA1048E3
:1004300000F086FA04210E4800F0E4F928B90C48CF
:1004400000F012F901F0AAFCA06101F035FA0848A9
:1004500000F076FA0421064800F0D4F9002805D10E
:10046000034800F001F901F099FCE06110BD0000C3
:10047000500000202DE9F041384C20686FF00B0649
:10048000314601F01BFD01F057FCDFF8D4804FF03E
:1004900066373A46434601F051FB01F01DFB314DF2
:1004A00068606068314601F009FD01F045FC3A469C
:1004B000434601F043FB01F00FFBA860A068314602
:1004C00001F0FCFC01F038FC3A46434601F036FBF3
:1004D00001F002FBE860E068314601F0EFFC01F05A
:1004E0002BFC3A46434601F029FB01F0F5FA28615E
:1004F0002069314601F0E2FC01F01EFC3A46434619
:1005000001F01CFB01F0E8FA68616069314601F016
:10051000D5FC01F011FC3A46434601F00FFB01F017
:10052000DBFAA861A069314601F0C8FC01F004FCC7
:100530003A46434601F002FB01F0CEFAE861E06979
:10054000314601F0BBFC01F0F7FB3A46434601F0AF
:10055000F5FA01F0C1FA2862BDE8F081100100202F
:1005600066660A4000000020FEE77047F8B50024E8
:10057000009490F824202546012A12D0012280F808
:1005800024204A681F23072A0DD20668776B521E63
:1005900002EB820293409F430B6893401F437763B3
:1005A00019E00220F8BD06680D2A0AD2376BD21F67
:1005B00002EB820293409F430B6893401F433763D3
:1005C00009E0F76A0D3A02EB820293409F430B6801
:1005D00093401F43F7620A68072306680A2A0AD372
:1005E000F7680A3A02EB420293409F438B689340BC
:1005F0001F43F76008E0376902EB420293409F43D4
:100600008B6893401F4337610A68102A01D0112A72
:1006100020D1124B02689A4217D193681B0219D459
:10062000936843F4000393600968102912D10C49C0
:100630000C4A0968B1FBF2F101EB8101490000E0CD
:10064000491E00910029FBD104E0816A41F020019C
:100650008162012480F824502046F8BD0024014026
:100660004C00002040420F000068C06C7047000042
:100670002DE9F0414FF0000704003D467ED0A06A0E
:10068000002628B9E66284F82460204600F07EF84F
:100690002046FFF7FDFDA16AC90600D420B1A06A7B
:1006A00040F01000A06269E0A16A21F4885141F095
:1006B0000201A1626268E169237B0A4347EA4301C0
:1006C0000A43A1684FF48077B94209D0012907D0C5
:1006D0005FF0000194F814C0BCF1010F02D00AE0F1
:1006E0003946F7E7F3B1A36A43F02003A362E36A54
:1006F00043F00103E3622368D3F804C02CF4694C8F
:100700004CEA010CC3F804C021688B68DFF870C0A4
:1007100003EA0C0313438B60A168B9420BD0012993
:1007200009D00CE0DFF85CC0A3690CEB43330B434A
:1007300043F40061DFE7218A0D05A5F580152168E6
:10074000CB6A23F470032B43CB62216889680E4B7C
:100750001940914208D1E662A16A21F0020141F0FC
:100760000101A162BDE8F081A06A20F0020040F022
:100770001000A062E06A40F00100E0620120F1E7B1
:10078000FDF7E1FF00E0FFFFFE0E1FFF10B586B092
:10079000002100910191029103910068154988425E
:1007A00026D11548816941F400718161816901F4A4
:1007B00000710491816941F004018161816901F056
:1007C00004010491816941F0080181618069032479
:1007D00000F008000490F320CDE9000469460748C2
:1007E00000F090F9009469460548019400F08AF9F8
:1007F00006B010BD00240140001002400008014076
:10080000000C01402DE9F84300270D4604460097EF
:1008100000F06EFA804620688168C90508D5A06A94
:1008200040F02000A06284F824700120BDE8F88325
:100830004168C90503D4C06A10F4700F2AD00220A1
:1008400000F0E6FA3B490968B1FBF0F6206803695D
:1008500039490B424FEA61014FEAA1121FD1C36827
:100860004FEA611C13EA0C0F19D103690B4225D121
:10087000C068104222D1142023E0681C0AD02DB198
:1008800000F036FAA0EB0800A84203D920680068FF
:10089000800725D5206800688007EED52DE0036924
:1008A0000B4202D1C168114206D0026923490A42B3
:1008B00006D1C068084203D1542002E0292000E09C
:1008C000FC204643009816E0681C11D02DB100F0C2
:1008D0000FFAA0EB0800A8420AD90098B04207D24C
:1008E000A06A40F00400A06284F8247003209DE711
:1008F0000098401C0090B042E6D321686FF01200CF
:100900000860A06A40F40070A06220688068C0F3AC
:10091000424007280CD1207B50B9A06A20F4807097
:10092000A062A06AC00403D4A06A40F00100A062E3
:1009300000207BE74C0000202449922449922400A7
:1009400070B5044690F8240001280DD0012084F8E9
:1009500024002046FFF7C8FC02004FF0000005D03D
:1009600084F82400104670BD022070BDA16A40F2D8
:100970000123994341F48071A1621F4D23681F49EF
:10098000AB4218D10E6816F4702F14D0A66A46F444
:100990008016A6620E68760505D5A66A26F400566E
:1009A00046F48056A662A66AF6040AD5E66A26F0E0
:1009B0000606E66206E0A66A26F48016A6625E686F
:1009C000E9E7E06284F824006FF002001860206814
:1009D0008368C3F34243072B05D1A84208D10968B5
:1009E00011F4702F04D0816841F480118160B9E75F
:1009F000816841F4A001F9E7002801400424014086
:100A000010B590F821100022022905D0042181633D
:100A100080F82020012010BD01680B6823F00E0330
:100A20000B6001680B6823F001030B6090F8403005
:100A3000C46B012101FA03F3636080F8211080F890
:100A40002020104610BD000010B590F821100024A1
:100A5000022903D00421816301243DE001680A6872
:100A600022F00E020A6001680A6822F001020A60A0
:100A70001A4A0168914201D1012121E0174A14323A
:100A8000914201D110211BE0144A2832914201D138
:100A9000891515E0114A3C32914201D189140FE0C9
:100AA0000E4A5032914202D14FF4803108E00B4A95
:100AB0006432914202D14FF4801101E04FF0807115
:100AC000064A083A5160012180F82110002180F87F
:100AD0002010416B01B18847204610BD080002403C
:100AE00070B5044600F004F90546601C02D00448C5
:100AF0000078044400F0FCF8401BA042FAD370BD1B
:100B0000400000202DE9F84FDFF8B8910024A9F14A
:100B1000040B23460F2709F1040AABF1040EC9E0C8
:100B20000125A5402A40AA427DD1674ED1F804C0D4
:100B3000ACEB0608B44532D014DCBCF1030F3AD05C
:100B400009DCBCF1000F2AD0BCF1010F1CD0BCF1B4
:100B5000020F31D11DE0BCF1110F17D0BCF1120F03
:100B60002AD119E0B8F5881F19D006DCB8F5803F06
:100B700015D0B8F5801F1FD111E0B8F5001F0ED0B9
:100B8000B8F5041F18D10AE0CB6815E0CB681B1D2F
:100B900012E0CB6808330FE0CB680C330CE08B68B5
:100BA0002BB1012B4FF0080303D0456104E004236F
:100BB00002E0056100E00023FF2A01D8064601E0BB
:100BC00000F104064FEA840501D9A5F12005D6F805
:100BD000008007FA05FC28EA0C0803FA05F548EA44
:100BE0000508C6F800804D68ED0062D5374DAE6946
:100BF00046F00106AE61AD6924F0030605F001057B
:100C00000095334D06EB050CDCF80850A607360FAF
:100C100007FA06F825EA0805DFF8B880404503D151
:100C20004FF0000817E044E0DFF8AC80404502D107
:100C30004FF001080FE0DFF8A480404502D14FF0EB
:100C4000020808E0DFF89880404502D14FF0030821
:100C500001E04FF0040808FA06F848EA0508CCF865
:100C600008804D68D9F80060ED024D4601D5164365
:100C700000E096432E604D68DAF80060AD025546FC
:100C800001D5164300E096432E604D68DBF8006006
:100C9000AD035D4601D5164300E096432E604D68D6
:100CA000DEF80060ED03754601D5164300E096437B
:100CB0002E60641C0D682A46E5407FF431AFBDE824
:100CC000F88F0000080401400000111000100240DD
:100CD0000000014000080140000C014000100140EC
:100CE000001401400AB1016170470904FBE70000EC
:100CF0000148806870470000400000200248816879
:100D0000027811448160704740000020074810B508
:100D1000016841F010010160032000F067F80F2026
:100D200000F006F800F024F8002010BD002002407A
:100D300070B50D4D04464FF47A712878B1FBF0F090
:100D40000A490968B1FBF0F000F086FB48B9102CA5
:100D500007D200222146501E00F028F800206C60C7
:100D600070BD012070BD0000400000204C0000203C
:100D70000C4808B5816941F001018161816901F088
:100D800001010091C16941F08051C161C06900F069
:100D9000805000900448416821F0E06141F000710A
:100DA000416008BD0010024000000140F0B40E4B4D
:100DB0001B680C46C3F30223C3F10705042D00D9B9
:100DC0000425191D072901D2002300E0DB1E01269E
:100DD00006FA05F1491E214099409E40761E1640B4
:100DE0003143F0BC00F057BE0CED00E0064900F0C6
:100DF000070208684FF6FF03184040EA0220034A42
:100E000010430860704700000CED00E00000FA0598
:100E100010B501460020234C012922D0022939D0E7
:100E200010291DD161682268D20119D51E48C1F36D
:100E30008342C903805C0AD561681B4AC1F3404103
:100E4000921E515C194AB2FBF1F1484301E0184986
:100E500048436168490203D440000321B0FBF1F02C
:100E600010BD226AC2F30121012903D1920701D5E5
:100E7000C80310BD022905D1626A920702D549F65E
:100E8000404010BD0329FCD121688903F9D54FF2F8
:100E9000244010BD00F01AF96168C1F38131491C8A
:100EA0004900DBE7001002404C1F000800127A00E6
:100EB00000093D002DE9F84305460078354CC00790
:100EC00054D0E0690026C00008D4E06940F08050AA
:100ED000E061E069012600F0805000902E48016832
:100EE000C90512D40168804641F480710160FFF7A2
:100EF000FFFE074605E000BFFFF7FAFEC01B6428AF
:100F000023D8D8F80000C005F6D5206A10F4407048
:100F100021D0A98801F4407181421CD0206A1F4968
:100F2000012220F440700A6000220A602062C0079B
:100F300011D0FFF7DDFE074641F2883808E000BF18
:100F4000FFF7D6FEC11B414502D90320BDE8F88357
:100F5000206A8007F4D5206A696820F4407008434D
:100F600020621EB1E06920F08050E061287880079F
:100F700005D56068A96820F440400843606028787F
:100F8000C00605D56068E96820F480000843606009
:100F90000020DBE7001002400070004040044242A5
:100FA0002DE9F0470F46050061D0434E306800F050
:100FB0000700B84209D2306820F00700384330609B
:100FC000306800F00700B84251D128683B4C8107D7
:100FD00012D5400703D5606840F4E060606028786F
:100FE000000703D5606840F4605060606068A968DD
:100FF00020F0F000084360602878C00728D06868B7
:10100000012810D02168022810D0890700292EDA83
:10101000616821F0030101436160FFF769FE8046CA
:1010200041F288390DE021688903EFE78901EDE796
:10103000FFF75EFEA0EB0801494502D90320BDE899
:10104000F0876068696800F00C00B0EB810FEFD1A9
:10105000306800F00700B8420BD9306820F0070074
:1010600038433060306800F00700B84201D00120FA
:10107000E5E72878400705D56068E96820F4E06076
:10108000084360602878000706D56068296920F465
:10109000605040EAC100606000F028F86168084ACA
:1010A000C1F30311515CC840064908600648006856
:1010B000FFF73EFE0020C2E7002002400010024081
:1010C0005C1F00084C000020440000200448054933
:1010D00000684968044AC1F3C221515CC8407047A6
:1010E0004C000020001002406C1F00080E4A51689E
:1010F0000E4801F00C03042B11D0082B0FD10C4823
:10110000C1F38343C903C05C0AD55168084AC1F3DF
:101110004041921E515C054A5043B0FBF1F07047CC
:1011200004494843704700000010024000127A0052
:101130003A1F000800093D002DE9F84F040070D067
:101140002078C04DC00749D06868C0F381000128ED
:1011500007D06868C0F38100022809D16868C0031D
:1011600006D52868800339D560680028E7D035E0C7
:101170006068B0F5803F0BD010B1B0F5A02F11D052
:10118000286820F480302860286820F4802002E05D
:10119000286840F480302860606890B1FFF7A8FDAF
:1011A00006460AE0286840F480202860F0E700BF87
:1011B000FFF79EFD801B642873D828688003F7D54D
:1011C0000CE0FFF795FD064605E000BFFFF790FD38
:1011D000801B6428F0D828688003F7D420789A4EC2
:1011E00080074FF001094FF0000839D5686810F00A
:1011F0000C0F07D06868C0F38100022809D1686825
:10120000C00306D42868800714D52069012808D1B6
:1012100010E02069B0B1C6F80090FFF769FD0746FD
:1012200005E00AE1FFF764FDC01B0228C4D8286866
:101230008007F7D52868616920F0F80040EAC1000E
:1012400028600DE0C6F80080FFF752FD074604E075
:10125000FFF74EFDC01B022823D828688007F7D46B
:10126000207800072CD57948A169D9B1C0F8009041
:10127000FFF73EFD074604E0FFF73AFDC01B0228DA
:101280000FD8686A8007F7D571484FF4FA510068A3
:10129000B0FBF1F0009000BF0098411E0091FAD21F
:1012A0000EE080E0C0F80080FFF722FD074604E072
:1012B000FFF71EFDC01B022875D8686A8007F7D4A7
:1012C0002078400760D5E8690027C00008D4E869A5
:1012D00040F08050E861E869012700F080500090FC
:1012E0005C480168C90513D40168834641F48071E4
:1012F0000160FFF7FDFC824606E000BFFFF7F8FC47
:10130000A0EB0A0064284ED8DBF80000C005F5D534
:10131000E06801280AD008B1052813D0286A20F017
:1013200001002862286A20F0040002E0286A40F0E8
:1013300001002862E06841F2883B98B1FFF7D8FCD1
:1013400082460BE0286A40F004002862EEE700BF06
:10135000FFF7CEFCA0EB0A0159455AD8286A80074E
:10136000F6D50CE0FFF7C4FC824605E0FFF7C0FCB1
:10137000A0EB0A0159454CD8286A8007F6D41FB162
:10138000E86920F08050E861E06988B36968C1F3DA
:101390008101022944D00228C6F8608004D0FFF7FA
:1013A000A7FC044638E034E0FFF7A2FC074604E05F
:1013B000FFF79EFCC01B02282BD828688001F7D4B9
:1013C000206AB0F5803F05D16868A16820F400303C
:1013D00008436860D4E908010843696821F474117E
:1013E00008436860C6F86090FFF782FC044606E098
:1013F00025E000BFFFF77CFC001B022809D8286805
:101400008001F7D51BE000BFFFF772FC001B02282C
:1014100002D90320BDE8F88F28688001F4D40EE0DB
:101420000128F7D06868226A00F48031914204D123
:10143000616A00F47010884201D00120EAE70020C0
:10144000E8E70000001002400000424280044242EF
:101450004C0000200070004010B5401EB0F1807FAD
:1014600001D3012010BD4FF0E02460610F2160170F
:1014700000F011FB0020A06107202061002010BDBA
:1014800070477047F8B5016804460868CA684B6938
:1014900010F00F0F4FF0000559D003F0010602F4D1
:1014A0009077374365D0C10705D0D10503D5616C6E
:1014B00041F001016164410705D5D90703D0616C92
:1014C00041F002016164810705D5D90703D0616C41
:1014D00041F004016164010707D502F020013143A6
:1014E00003D0616C41F008016164616C00293AD05D
:1014F000800604D5900602D5204600F05EFA2068EA
:101500004069616CC0F38010090700D460B32046C5
:1015100000F02CFA20684069400621D5206814307C
:1015200050E8001F21F0400140E80012002AF5D1E8
:10153000E06BA8B16D494163E06BFFF785FA0028C5
:1015400011D0E06B416B01B0BDE8F0400847830665
:101550000FD593060DD52046BDE8F84000F02DBA12
:101560002046FFF78EFFF8BD2046FFF78AFF65642F
:10157000F8BD266B2023012E7CD1C6067AD5D6066F
:1015800078D508684868009048694FF00206400620
:1015900040D5E16B086840680004000CE8D0A28DDB
:1015A0008242E5D9E085886920282DD020680C305A
:1015B00050E8001F21F4807140E80012002AF5D1A4
:1015C0002068143050E8001F21F0010140E80012AB
:1015D000002AF5D12068143050E8001F21F04001A6
:1015E00040E80012002AF5D184F8423025632068D3
:1015F0000C3050E8001F21F0100140E80012002AD2
:10160000F5D1E06BFFF7FCF96663A08DE18D401A20
:1016100081B22AE0A08DE18D401A81B2E08D0028D0
:10162000A6D00029A4D022680C3252E8000F20F482
:10163000907042E80007002FF5D12068143050E880
:10164000002F22F0010240E80027002FF5D184F896
:101650004230256320680C3050E8002F22F0100241
:1016600040E80023002BF5D166632046FFF708FF12
:10167000F8BDFFE705062BD5150629D594F84100DE
:101680002128F5D1A068B0F5805F01D12069B0B103
:10169000206A411C2162216800784860E08C401E6D
:1016A0000004000CE084E3D12068C16821F08001CF
:1016B000C1602068C16841F04001C160D8E7206A7C
:1016C0000088C0F308004860206A801C2062E5E7BB
:1016D0004006CDD55006CBD5CA68204622F0400240
:1016E000CA6084F8413000F004F8C1E75D190008D1
:1016F00070477047FEE700003EB500241048009494
:10170000019402940D4984600160047304750125FD
:1017100005614FF460214460C161FEF7A9FF08B183
:1017200072B6FEE7CDE90045694605480295FEF729
:101730001DFF002801D072B6FEE73EBD0024014027
:101740005000002070B586B0002418480094019421
:1017500002940394816941F020018161816901F063
:1017600020010491816941F004018161816901F0E6
:1017700004010491816941F00801816180690C4E86
:1017800000F008004FF44E750490002229463046C0
:10179000FFF7A8FA01200095CDE90104022003908B
:1017A00069463046FFF7AEF906B070BD0010024042
:1017B000000C0140FEE7FEE7704700000EB5002078
:1017C0000090012001900620029069460348FEF730
:1017D000CDFE002801D072B6FEE70EBD50000020FD
:1017E0000EB5012000900190062002906946044841
:1017F000FEF7BCFE002801D072B6FEE70EBD000069
:10180000500000200EB50420009001200190062019
:10181000029069460348FEF7A9FE002801D072B67F
:10182000FEE70EBD500000200EB5052000900120FF
:1018300001900620029069460348FEF797FE0028B3
:1018400001D072B6FEE70EBD500000200EB5062096
:101850000121CDE90001029069460448FEF786FEA9
:10186000002801D072B6FEE70EBD00005000002037
:101870000EB50720009001200190062002906946D5
:101880000348FEF773FE002801D072B6FEE70EBDD6
:10189000500000200EB50820009001200190062085
:1018A000029069460348FEF761FE002801D072B637
:1018B000FEE70EBD500000200EB50920009001206B
:1018C00001900620029069460348FEF74FFE00286B
:1018D00001D072B6FEE70EBD500000207047FFF742
:1018E0000DBA30B593B028216846FEF76DFC14217F
:1018F0000AA8FEF769FC002501200F9510951195A7
:10190000010412958DE8230004904FF4E010CDE916
:101910000810022407946846FFF70EFC08B172B65F
:10192000FEE70AA90F2081E831004FF48060CDE97D
:101930000D0502210AA8FFF733FB08B172B6FEE7D6
:101940004FF4404011900F940FA8FFF7B3FA00280E
:1019500001D072B6FEE713B030BD704710B5406AD3
:101960000021C185C184FFF78CFD10BD01680C31D9
:1019700051E8002F22F4907241E80023002BF5D1AA
:101980000168143151E8002F22F0010241E80023E0
:10199000002BF5D1016B012909D101680C3151E807
:1019A000002F22F0100241E80023002BF5D1202166
:1019B00080F8421000210163704708B590F842108A
:1019C000222901D0022008BD82684FF480539A4238
:1019D00001D1016921B1816A9A421BD04AB10AE062
:1019E0000268816A5268C2F308020A80816A891C0F
:1019F00008E0026972B10268526802F07F020A7060
:101A0000816A491C8162C18D491E0904090CC18586
:101A100003D01BE002685268F1E70168CA6822F04F
:101A20002002CA600168CA6822F48072CA60016834
:101A30004A6922F001024A61202180F84210002107
:101A40004163026B012A03D0FFF752FE002008BD5C
:101A5000016301680C3151E8002F22F0100241E8C7
:101A60000023002BF5D101680A68D20602D50A6866
:101A700049680091818DFFF703FDE7E70148FFF713
:101A800001BD0000800000200148FFF7FBBC000002
:101A9000C8000020FEE70907090E002804DB00F15A
:101AA000E02080F80014704700F00F0000F1E02003
:101AB00080F8141D7047FFF729F9FFF712FFFFF7B1
:101AC00041FEFFF719FEFEF74DFCFEF7D3FC642044
:101AD000FFF706F8F7E7000021F00042A2F160529C
:101AE000B2F5801F01F0004328BFD2F17F6C0BD903
:101AF0005FEA001C43EAC20242EB507018BF704715
:101B000028BF20F001007047B2F5801FBCBF184607
:101B100070474FEA410C1CF5001F02D2084600F046
:101B200096B970B500F0B4F800000089FFF7F6BF71
:101B30004FF00040A0F5800070470000DFF848C17A
:101B400070B51CEA111E1EBF1CEA13159EEA0C0F8D
:101B500095EA0C0F00F06F8081EA030423EA4C132E
:101B60004EEAD47E21EA4C1141F4801143F48013F3
:101B7000AE44A1FB024CA0FB0365AEF17F7E36199B
:101B800055EB0C05A1FB034C4CF10003A0FB021C20
:101B900016EB0C06654153F10003094218BF46F0ED
:101BA000010613F4007F0BD14FEA03314FEA0530F1
:101BB000340341EA155140EA16506FF003020AE07F
:101BC0004FEAC3214FEAC520F40241EA555140EAE9
:101BD00056506FF0020202EB2E4201EB025585EAED
:101BE000CE710AD05FEA440C18BF24F0004450F1D3
:101BF000000041F1000120EAD47040F2FE7C624511
:101C000000D270BDA84214BF4FF080444FF0404452
:101C1000002E08BF0024BEF1806FA8BFA1F1C04113
:101C2000BDE8704080F282804FF0000001F1C041B9
:101C300001F0004170479EEA0C0F0CEA131518BF23
:101C400095EA0C0F06D04FF0000081EA030E0EF06B
:101C5000004170BD00F01CF88900013E00F007B89B
:101C600000F009B84FEA430C5FEA5C5C08D081EAF7
:101C7000030100F05BB84FEA410C5FEA5C5CF6D10F
:101C80004FF00000014970470000FF070000F87F97
:101C90000EF1020E2EF0030E5EF8046B364205D4F0
:101CA000012A43EB030515F5001F12D8012841EB6B
:101CB000010C1CF5001F0CD80ED14FEAD17C15F594
:101CC000001F0CEB4C0C0CF1020C08BF4CEBD37C4E
:101CD00004E04FF0080C01E04FEAD37C0CEB4C051C
:101CE00026FA05F606F00706B6F1040C06D20EEB4E
:101CF000860CBDE870404CF0010C6047DFE80CF04A
:101D0000090B02024FF000414FF00000A1F5002145
:101D100070BD19461046012851EB010418BFD4F5D7
:101D2000001484BF002001F0004170BD0808A0F538
:101D300000114FEA3101704743004FEAD30C4FEADC
:101D40003C0C43401FBF40070CF1605113F0FE4FA5
:101D500070471CF0006F03D100200CF00041704769
:101D60000CF0004343EA507010B540EACC0000F09C
:101D700028F800BF000000924FEA0001FFF7D6BF2D
:101D80004FF000414FF00000A1F500217047000026
:101D9000014800F061B800BF0000C07FB0FA80F3D6
:101DA00010FA03F2C3F19D030AD0D90501EB12200A
:101DB000530638BF704700F1010008BF20F0010052
:101DC00070470EF1020E2EF0030E5EF8044B244213
:101DD00004D44FEA4102B2F17F4F11D84FEA4003D9
:101DE000B3F17F4F0CD80ED14FEAD07CB2F17F4FC8
:101DF0000CEB4C0C0CF1020C08BF4CEBD17C04E05A
:101E00004FF0080C01E04FEAD17C0CEB4C0324FAB4
:101E100003F404F00704B4F1040C06D20EEB840CB6
:101E2000BDE810404CF0010C6047DFE80CF00708FB
:101E300002024FF00040A0F5800010BD08464200AD
:101E400018BFD2F1807288BF00F0004010BDFF21A2
:101E500041EAD050C00570470CF00F03092B08BFB2
:101E6000082000F051800A2B0BD0082B18BF7047B8
:101E700008BF1CF0400F0AD04FF000004FF00001E7
:101E800070471CF0400F18BF4FF0004070471CF027
:101E9000100F08D020F0704300F07F4242EAD301D7
:101EA0004FEA4370704700F0604021F07F4242EA01
:101EB000000201F07F4040EA727070474FF0FF026D
:101EC00012EAD0521CBF92F0FF038B42C2BFD14234
:101ED00000EBC1507047002A0AD0002B0BD000291C
:101EE00000F00040A4BF40F0FE4040F40000704706
:101EF00000F00040704743024FF00B0C18BF4CF04D
:101F0000806C7FF445AF70471CF4801F11D01CF427
:101F1000E02F03D06FEACC31490070474FF04050BA
:101F2000EFF3008222F0704242EA000282F300885E
:101F300070474FF0000070470102020304050607D6
:101F400008090A0B0C0D0E0F101001020203040504
:101F5000060708090A0B0C0D0E0F101000000000F8
:101F60000000000001020304060708090000000049
:101F700001020304941F000800000020500000002C
:101F800028010008E41F000850000020E0070000BE
:101F900044010008000000000000000000000000F4
:101FA0000000000000000000000000000000000031
:101FB0000000000000000000000000000000000021
:101FC0000000000000000000000000000000000011
:101FD00000000000010000001000000000000000F0
:041FE0000024F400E5
:04000005080000ED02
:00000001FF
